{
  "_format": "hh-sol-artifact-1",
  "contractName": "DocVerify",
  "sourceName": "contracts/DocVerify.sol",
  "abi": [
    {
      "inputs": [],
      "stateMutability": "nonpayable",
      "type": "constructor"
    },
    {
      "inputs": [
        {
          "internalType": "bytes32",
          "name": "hash",
          "type": "bytes32"
        },
        {
          "components": [
            {
              "internalType": "string",
              "name": "fullName",
              "type": "string"
            },
            {
              "internalType": "string",
              "name": "dob",
              "type": "string"
            },
            {
              "internalType": "string",
              "name": "gender",
              "type": "string"
            },
            {
              "internalType": "string",
              "name": "physicalAddress",
              "type": "string"
            },
            {
              "internalType": "string",
              "name": "phone",
              "type": "string"
            },
            {
              "internalType": "string",
              "name": "email",
              "type": "string"
            },
            {
              "internalType": "string",
              "name": "aadhaar",
              "type": "string"
            },
            {
              "internalType": "string",
              "name": "pan",
              "type": "string"
            },
            {
              "internalType": "string",
              "name": "passport",
              "type": "string"
            },
            {
              "internalType": "string",
              "name": "drivingLicense",
              "type": "string"
            },
            {
              "internalType": "string",
              "name": "voterId",
              "type": "string"
            },
            {
              "internalType": "string",
              "name": "photoUrl",
              "type": "string"
            }
          ],
          "internalType": "struct DocVerify.Student",
          "name": "student",
          "type": "tuple"
        }
      ],
      "name": "addDocumentHash",
      "outputs": [],
      "stateMutability": "nonpayable",
      "type": "function"
    },
    {
      "inputs": [
        {
          "internalType": "bytes32",
          "name": "",
          "type": "bytes32"
        }
      ],
      "name": "documentHashes",
      "outputs": [
        {
          "internalType": "bool",
          "name": "",
          "type": "bool"
        }
      ],
      "stateMutability": "view",
      "type": "function"
    },
    {
      "inputs": [
        {
          "internalType": "bytes32",
          "name": "hash",
          "type": "bytes32"
        }
      ],
      "name": "getStudentDetails",
      "outputs": [
        {
          "internalType": "string",
          "name": "",
          "type": "string"
        },
        {
          "internalType": "string",
          "name": "",
          "type": "string"
        },
        {
          "internalType": "string",
          "name": "",
          "type": "string"
        },
        {
          "internalType": "string",
          "name": "",
          "type": "string"
        },
        {
          "internalType": "string",
          "name": "",
          "type": "string"
        },
        {
          "internalType": "string",
          "name": "",
          "type": "string"
        },
        {
          "internalType": "string",
          "name": "",
          "type": "string"
        },
        {
          "internalType": "string",
          "name": "",
          "type": "string"
        },
        {
          "internalType": "string",
          "name": "",
          "type": "string"
        },
        {
          "internalType": "string",
          "name": "",
          "type": "string"
        },
        {
          "internalType": "string",
          "name": "",
          "type": "string"
        },
        {
          "internalType": "string",
          "name": "",
          "type": "string"
        }
      ],
      "stateMutability": "view",
      "type": "function"
    },
    {
      "inputs": [],
      "name": "owner",
      "outputs": [
        {
          "internalType": "address",
          "name": "",
          "type": "address"
        }
      ],
      "stateMutability": "view",
      "type": "function"
    },
    {
      "inputs": [
        {
          "internalType": "bytes32",
          "name": "",
          "type": "bytes32"
        }
      ],
      "name": "studentDetails",
      "outputs": [
        {
          "internalType": "string",
          "name": "fullName",
          "type": "string"
        },
        {
          "internalType": "string",
          "name": "dob",
          "type": "string"
        },
        {
          "internalType": "string",
          "name": "gender",
          "type": "string"
        },
        {
          "internalType": "string",
          "name": "physicalAddress",
          "type": "string"
        },
        {
          "internalType": "string",
          "name": "phone",
          "type": "string"
        },
        {
          "internalType": "string",
          "name": "email",
          "type": "string"
        },
        {
          "internalType": "string",
          "name": "aadhaar",
          "type": "string"
        },
        {
          "internalType": "string",
          "name": "pan",
          "type": "string"
        },
        {
          "internalType": "string",
          "name": "passport",
          "type": "string"
        },
        {
          "internalType": "string",
          "name": "drivingLicense",
          "type": "string"
        },
        {
          "internalType": "string",
          "name": "voterId",
          "type": "string"
        },
        {
          "internalType": "string",
          "name": "photoUrl",
          "type": "string"
        }
      ],
      "stateMutability": "view",
      "type": "function"
    },
    {
      "inputs": [
        {
          "internalType": "bytes32",
          "name": "hash",
          "type": "bytes32"
        }
      ],
      "name": "verifyDocument",
      "outputs": [
        {
          "internalType": "bool",
          "name": "",
          "type": "bool"
        }
      ],
      "stateMutability": "view",
      "type": "function"
    }
  ],
  "bytecode": "0x608060405234801561001057600080fd5b50600080546001600160a01b031916331790556116e2806100326000396000f3fe608060405234801561001057600080fd5b50600436106100625760003560e01c80633d6113b614610067578063806d8a8f1461009b5780638c636784146100ce5780638da5cb5b146100e1578063fa1a45031461010c578063fe35089f14610121575b600080fd5b61007a61007536600461122a565b610144565b6040516100929c9b9a99989796959493929190611290565b60405180910390f35b6100be6100a936600461122a565b60016020526000908152604090205460ff1681565b6040519015158152602001610092565b61007a6100dc36600461122a565b6107fc565b6000546100f4906001600160a01b031681565b6040516001600160a01b039091168152602001610092565b61011f61011a366004611463565b610fcf565b005b6100be61012f36600461122a565b60009081526001602052604090205460ff1690565b60026020526000908152604090208054819061015f90611671565b80601f016020809104026020016040519081016040528092919081815260200182805461018b90611671565b80156101d85780601f106101ad576101008083540402835291602001916101d8565b820191906000526020600020905b8154815290600101906020018083116101bb57829003601f168201915b5050505050908060010180546101ed90611671565b80601f016020809104026020016040519081016040528092919081815260200182805461021990611671565b80156102665780601f1061023b57610100808354040283529160200191610266565b820191906000526020600020905b81548152906001019060200180831161024957829003601f168201915b50505050509080600201805461027b90611671565b80601f01602080910402602001604051908101604052809291908181526020018280546102a790611671565b80156102f45780601f106102c9576101008083540402835291602001916102f4565b820191906000526020600020905b8154815290600101906020018083116102d757829003601f168201915b50505050509080600301805461030990611671565b80601f016020809104026020016040519081016040528092919081815260200182805461033590611671565b80156103825780601f1061035757610100808354040283529160200191610382565b820191906000526020600020905b81548152906001019060200180831161036557829003601f168201915b50505050509080600401805461039790611671565b80601f01602080910402602001604051908101604052809291908181526020018280546103c390611671565b80156104105780601f106103e557610100808354040283529160200191610410565b820191906000526020600020905b8154815290600101906020018083116103f357829003601f168201915b50505050509080600501805461042590611671565b80601f016020809104026020016040519081016040528092919081815260200182805461045190611671565b801561049e5780601f106104735761010080835404028352916020019161049e565b820191906000526020600020905b81548152906001019060200180831161048157829003601f168201915b5050505050908060060180546104b390611671565b80601f01602080910402602001604051908101604052809291908181526020018280546104df90611671565b801561052c5780601f106105015761010080835404028352916020019161052c565b820191906000526020600020905b81548152906001019060200180831161050f57829003601f168201915b50505050509080600701805461054190611671565b80601f016020809104026020016040519081016040528092919081815260200182805461056d90611671565b80156105ba5780601f1061058f576101008083540402835291602001916105ba565b820191906000526020600020905b81548152906001019060200180831161059d57829003601f168201915b5050505050908060080180546105cf90611671565b80601f01602080910402602001604051908101604052809291908181526020018280546105fb90611671565b80156106485780601f1061061d57610100808354040283529160200191610648565b820191906000526020600020905b81548152906001019060200180831161062b57829003601f168201915b50505050509080600901805461065d90611671565b80601f016020809104026020016040519081016040528092919081815260200182805461068990611671565b80156106d65780601f106106ab576101008083540402835291602001916106d6565b820191906000526020600020905b8154815290600101906020018083116106b957829003601f168201915b50505050509080600a0180546106eb90611671565b80601f016020809104026020016040519081016040528092919081815260200182805461071790611671565b80156107645780601f1061073957610100808354040283529160200191610764565b820191906000526020600020905b81548152906001019060200180831161074757829003601f168201915b50505050509080600b01805461077990611671565b80601f01602080910402602001604051908101604052809291908181526020018280546107a590611671565b80156107f25780601f106107c7576101008083540402835291602001916107f2565b820191906000526020600020905b8154815290600101906020018083116107d557829003601f168201915b505050505090508c565b606080606080606080606080606080606080600160008e815260200190815260200160002060009054906101000a900460ff166108755760405162461bcd60e51b8152602060048201526012602482015271111bd8dd5b595b9d081b9bdd08199bdd5b9960721b60448201526064015b60405180910390fd5b60008d8152600260205260408082208151610180810190925280548290829061089d90611671565b80601f01602080910402602001604051908101604052809291908181526020018280546108c990611671565b80156109165780601f106108eb57610100808354040283529160200191610916565b820191906000526020600020905b8154815290600101906020018083116108f957829003601f168201915b5050505050815260200160018201805461092f90611671565b80601f016020809104026020016040519081016040528092919081815260200182805461095b90611671565b80156109a85780601f1061097d576101008083540402835291602001916109a8565b820191906000526020600020905b81548152906001019060200180831161098b57829003601f168201915b505050505081526020016002820180546109c190611671565b80601f01602080910402602001604051908101604052809291908181526020018280546109ed90611671565b8015610a3a5780601f10610a0f57610100808354040283529160200191610a3a565b820191906000526020600020905b815481529060010190602001808311610a1d57829003601f168201915b50505050508152602001600382018054610a5390611671565b80601f0160208091040260200160405190810160405280929190818152602001828054610a7f90611671565b8015610acc5780601f10610aa157610100808354040283529160200191610acc565b820191906000526020600020905b815481529060010190602001808311610aaf57829003601f168201915b50505050508152602001600482018054610ae590611671565b80601f0160208091040260200160405190810160405280929190818152602001828054610b1190611671565b8015610b5e5780601f10610b3357610100808354040283529160200191610b5e565b820191906000526020600020905b815481529060010190602001808311610b4157829003601f168201915b50505050508152602001600582018054610b7790611671565b80601f0160208091040260200160405190810160405280929190818152602001828054610ba390611671565b8015610bf05780601f10610bc557610100808354040283529160200191610bf0565b820191906000526020600020905b815481529060010190602001808311610bd357829003601f168201915b50505050508152602001600682018054610c0990611671565b80601f0160208091040260200160405190810160405280929190818152602001828054610c3590611671565b8015610c825780601f10610c5757610100808354040283529160200191610c82565b820191906000526020600020905b815481529060010190602001808311610c6557829003601f168201915b50505050508152602001600782018054610c9b90611671565b80601f0160208091040260200160405190810160405280929190818152602001828054610cc790611671565b8015610d145780601f10610ce957610100808354040283529160200191610d14565b820191906000526020600020905b815481529060010190602001808311610cf757829003601f168201915b50505050508152602001600882018054610d2d90611671565b80601f0160208091040260200160405190810160405280929190818152602001828054610d5990611671565b8015610da65780601f10610d7b57610100808354040283529160200191610da6565b820191906000526020600020905b815481529060010190602001808311610d8957829003601f168201915b50505050508152602001600982018054610dbf90611671565b80601f0160208091040260200160405190810160405280929190818152602001828054610deb90611671565b8015610e385780601f10610e0d57610100808354040283529160200191610e38565b820191906000526020600020905b815481529060010190602001808311610e1b57829003601f168201915b50505050508152602001600a82018054610e5190611671565b80601f0160208091040260200160405190810160405280929190818152602001828054610e7d90611671565b8015610eca5780601f10610e9f57610100808354040283529160200191610eca565b820191906000526020600020905b815481529060010190602001808311610ead57829003601f168201915b50505050508152602001600b82018054610ee390611671565b80601f0160208091040260200160405190810160405280929190818152602001828054610f0f90611671565b8015610f5c5780601f10610f3157610100808354040283529160200191610f5c565b820191906000526020600020905b815481529060010190602001808311610f3f57829003601f168201915b5050505050815250509050806000015181602001518260400151836060015184608001518560a001518660c001518760e001518861010001518961012001518a61014001518b61016001519c509c509c509c509c509c509c509c509c509c509c509c505091939597999b5091939597999b565b6000546001600160a01b0316331461101e5760405162461bcd60e51b815260206004820152601260248201527113db9b1e481bdddb995c8818d85b8818591960721b604482015260640161086c565b6000828152600160208181526040808420805460ff1916909317909255600281529120825180518493611055928492910190611191565b50602082810151805161106e9260018501920190611191565b506040820151805161108a916002840191602090910190611191565b50606082015180516110a6916003840191602090910190611191565b50608082015180516110c2916004840191602090910190611191565b5060a082015180516110de916005840191602090910190611191565b5060c082015180516110fa916006840191602090910190611191565b5060e08201518051611116916007840191602090910190611191565b506101008201518051611133916008840191602090910190611191565b506101208201518051611150916009840191602090910190611191565b50610140820151805161116d91600a840191602090910190611191565b50610160820151805161118a91600b840191602090910190611191565b5050505050565b82805461119d90611671565b90600052602060002090601f0160209004810192826111bf5760008555611205565b82601f106111d857805160ff1916838001178555611205565b82800160010185558215611205579182015b828111156112055782518255916020019190600101906111ea565b50611211929150611215565b5090565b5b808211156112115760008155600101611216565b60006020828403121561123c57600080fd5b5035919050565b6000815180845260005b818110156112695760208185018101518683018201520161124d565b8181111561127b576000602083870101525b50601f01601f19169290920160200192915050565b610180815260006112a561018083018f611243565b82810360208401526112b7818f611243565b905082810360408401526112cb818e611243565b905082810360608401526112df818d611243565b905082810360808401526112f3818c611243565b905082810360a0840152611307818b611243565b905082810360c084015261131b818a611243565b905082810360e084015261132f8189611243565b90508281036101008401526113448188611243565b90508281036101208401526113598187611243565b905082810361014084015261136e8186611243565b90508281036101608401526113838185611243565b9f9e505050505050505050505050505050565b634e487b7160e01b600052604160045260246000fd5b604051610180810167ffffffffffffffff811182821017156113d0576113d0611396565b60405290565b600082601f8301126113e757600080fd5b813567ffffffffffffffff8082111561140257611402611396565b604051601f8301601f19908116603f0116810190828211818310171561142a5761142a611396565b8160405283815286602085880101111561144357600080fd5b836020870160208301376000602085830101528094505050505092915050565b6000806040838503121561147657600080fd5b82359150602083013567ffffffffffffffff8082111561149557600080fd5b9084019061018082870312156114aa57600080fd5b6114b26113ac565b8235828111156114c157600080fd5b6114cd888286016113d6565b8252506020830135828111156114e257600080fd5b6114ee888286016113d6565b60208301525060408301358281111561150657600080fd5b611512888286016113d6565b60408301525060608301358281111561152a57600080fd5b611536888286016113d6565b60608301525060808301358281111561154e57600080fd5b61155a888286016113d6565b60808301525060a08301358281111561157257600080fd5b61157e888286016113d6565b60a08301525060c08301358281111561159657600080fd5b6115a2888286016113d6565b60c08301525060e0830135828111156115ba57600080fd5b6115c6888286016113d6565b60e08301525061010080840135838111156115e057600080fd5b6115ec898287016113d6565b828401525050610120808401358381111561160657600080fd5b611612898287016113d6565b828401525050610140808401358381111561162c57600080fd5b611638898287016113d6565b828401525050610160808401358381111561165257600080fd5b61165e898287016113d6565b8284015250508093505050509250929050565b600181811c9082168061168557607f821691505b602082108114156116a657634e487b7160e01b600052602260045260246000fd5b5091905056fea264697066735822122080d3f44c3a77e2ab6f04643f64562d4dc14420e09ff902f6942282bb583edb5264736f6c63430008090033",
  "linkReferences": {},
  "deployedLinkReferences": {}
}